{
  "_format": "hh-sol-artifact-1",
  "contractName": "DocRegistry",
  "sourceName": "contracts/DocRegistry.sol",
  "abi": [
    {
      "inputs": [
        {
          "internalType": "address",
          "name": "admin",
          "type": "address"
        }
      ],
      "stateMutability": "nonpayable",
      "type": "constructor"
    },
    {
      "inputs": [],
      "name": "AccessControlBadConfirmation",
      "type": "error"
    },
    {
      "inputs": [
        {
          "internalType": "address",
          "name": "account",
          "type": "address"
        },
        {
          "internalType": "bytes32",
          "name": "neededRole",
          "type": "bytes32"
        }
      ],
      "name": "AccessControlUnauthorizedAccount",
      "type": "error"
    },
    {
      "anonymous": false,
      "inputs": [
        {
          "indexed": true,
          "internalType": "bytes32",
          "name": "docHash",
          "type": "bytes32"
        },
        {
          "indexed": true,
          "internalType": "address",
          "name": "issuer",
          "type": "address"
        },
        {
          "indexed": false,
          "internalType": "string",
          "name": "ipfsUri",
          "type": "string"
        }
      ],
      "name": "DocumentIssued",
      "type": "event"
    },
    {
      "anonymous": false,
      "inputs": [
        {
          "indexed": true,
          "internalType": "bytes32",
          "name": "docHash",
          "type": "bytes32"
        },
        {
          "indexed": true,
          "internalType": "address",
          "name": "issuer",
          "type": "address"
        }
      ],
      "name": "DocumentRevoked",
      "type": "event"
    },
    {
      "anonymous": false,
      "inputs": [
        {
          "indexed": true,
          "internalType": "bytes32",
          "name": "role",
          "type": "bytes32"
        },
        {
          "indexed": true,
          "internalType": "bytes32",
          "name": "previousAdminRole",
          "type": "bytes32"
        },
        {
          "indexed": true,
          "internalType": "bytes32",
          "name": "newAdminRole",
          "type": "bytes32"
        }
      ],
      "name": "RoleAdminChanged",
      "type": "event"
    },
    {
      "anonymous": false,
      "inputs": [
        {
          "indexed": true,
          "internalType": "bytes32",
          "name": "role",
          "type": "bytes32"
        },
        {
          "indexed": true,
          "internalType": "address",
          "name": "account",
          "type": "address"
        },
        {
          "indexed": true,
          "internalType": "address",
          "name": "sender",
          "type": "address"
        }
      ],
      "name": "RoleGranted",
      "type": "event"
    },
    {
      "anonymous": false,
      "inputs": [
        {
          "indexed": true,
          "internalType": "bytes32",
          "name": "role",
          "type": "bytes32"
        },
        {
          "indexed": true,
          "internalType": "address",
          "name": "account",
          "type": "address"
        },
        {
          "indexed": true,
          "internalType": "address",
          "name": "sender",
          "type": "address"
        }
      ],
      "name": "RoleRevoked",
      "type": "event"
    },
    {
      "inputs": [],
      "name": "ADMIN_ROLE",
      "outputs": [
        {
          "internalType": "bytes32",
          "name": "",
          "type": "bytes32"
        }
      ],
      "stateMutability": "view",
      "type": "function"
    },
    {
      "inputs": [],
      "name": "DEFAULT_ADMIN_ROLE",
      "outputs": [
        {
          "internalType": "bytes32",
          "name": "",
          "type": "bytes32"
        }
      ],
      "stateMutability": "view",
      "type": "function"
    },
    {
      "inputs": [],
      "name": "ISSUER_ROLE",
      "outputs": [
        {
          "internalType": "bytes32",
          "name": "",
          "type": "bytes32"
        }
      ],
      "stateMutability": "view",
      "type": "function"
    },
    {
      "inputs": [],
      "name": "getAllIssuedDocuments",
      "outputs": [
        {
          "internalType": "bytes32[]",
          "name": "",
          "type": "bytes32[]"
        }
      ],
      "stateMutability": "view",
      "type": "function"
    },
    {
      "inputs": [
        {
          "internalType": "bytes32",
          "name": "docHash",
          "type": "bytes32"
        }
      ],
      "name": "getDocument",
      "outputs": [
        {
          "internalType": "address",
          "name": "issuer",
          "type": "address"
        },
        {
          "internalType": "string",
          "name": "fileName",
          "type": "string"
        },
        {
          "internalType": "string",
          "name": "ipfsUri",
          "type": "string"
        },
        {
          "internalType": "uint256",
          "name": "issuedAt",
          "type": "uint256"
        },
        {
          "internalType": "bool",
          "name": "revoked",
          "type": "bool"
        }
      ],
      "stateMutability": "view",
      "type": "function"
    },
    {
      "inputs": [
        {
          "internalType": "bytes32",
          "name": "role",
          "type": "bytes32"
        }
      ],
      "name": "getRoleAdmin",
      "outputs": [
        {
          "internalType": "bytes32",
          "name": "",
          "type": "bytes32"
        }
      ],
      "stateMutability": "view",
      "type": "function"
    },
    {
      "inputs": [
        {
          "internalType": "address",
          "name": "account",
          "type": "address"
        }
      ],
      "name": "grantIssuerRole",
      "outputs": [],
      "stateMutability": "nonpayable",
      "type": "function"
    },
    {
      "inputs": [
        {
          "internalType": "bytes32",
          "name": "role",
          "type": "bytes32"
        },
        {
          "internalType": "address",
          "name": "account",
          "type": "address"
        }
      ],
      "name": "grantRole",
      "outputs": [],
      "stateMutability": "nonpayable",
      "type": "function"
    },
    {
      "inputs": [
        {
          "internalType": "bytes32",
          "name": "role",
          "type": "bytes32"
        },
        {
          "internalType": "address",
          "name": "account",
          "type": "address"
        }
      ],
      "name": "hasRole",
      "outputs": [
        {
          "internalType": "bool",
          "name": "",
          "type": "bool"
        }
      ],
      "stateMutability": "view",
      "type": "function"
    },
    {
      "inputs": [
        {
          "internalType": "address",
          "name": "account",
          "type": "address"
        }
      ],
      "name": "isAdmin",
      "outputs": [
        {
          "internalType": "bool",
          "name": "",
          "type": "bool"
        }
      ],
      "stateMutability": "view",
      "type": "function"
    },
    {
      "inputs": [
        {
          "internalType": "address",
          "name": "account",
          "type": "address"
        }
      ],
      "name": "isIssuer",
      "outputs": [
        {
          "internalType": "bool",
          "name": "",
          "type": "bool"
        }
      ],
      "stateMutability": "view",
      "type": "function"
    },
    {
      "inputs": [
        {
          "internalType": "bytes32",
          "name": "docHash",
          "type": "bytes32"
        },
        {
          "internalType": "string",
          "name": "fileName",
          "type": "string"
        },
        {
          "internalType": "string",
          "name": "cid",
          "type": "string"
        }
      ],
      "name": "issueDocument",
      "outputs": [],
      "stateMutability": "nonpayable",
      "type": "function"
    },
    {
      "inputs": [
        {
          "internalType": "bytes32",
          "name": "role",
          "type": "bytes32"
        },
        {
          "internalType": "address",
          "name": "callerConfirmation",
          "type": "address"
        }
      ],
      "name": "renounceRole",
      "outputs": [],
      "stateMutability": "nonpayable",
      "type": "function"
    },
    {
      "inputs": [
        {
          "internalType": "bytes32",
          "name": "docHash",
          "type": "bytes32"
        }
      ],
      "name": "revokeDocument",
      "outputs": [],
      "stateMutability": "nonpayable",
      "type": "function"
    },
    {
      "inputs": [
        {
          "internalType": "bytes32",
          "name": "role",
          "type": "bytes32"
        },
        {
          "internalType": "address",
          "name": "account",
          "type": "address"
        }
      ],
      "name": "revokeRole",
      "outputs": [],
      "stateMutability": "nonpayable",
      "type": "function"
    },
    {
      "inputs": [
        {
          "internalType": "bytes4",
          "name": "interfaceId",
          "type": "bytes4"
        }
      ],
      "name": "supportsInterface",
      "outputs": [
        {
          "internalType": "bool",
          "name": "",
          "type": "bool"
        }
      ],
      "stateMutability": "view",
      "type": "function"
    }
  ],
  "bytecode": "0x608060405234801561001057600080fd5b50604051611bbd380380611bbd83398181016040528101906100329190610280565b6100456000801b826100ae60201b60201c565b506100767fa49807205ce4d355092ef5a8a18f56e8913cf4a201fbe287825b095693c21775826100ae60201b60201c565b506100a77f114e74f6ea3bd819998f78687bfcb11b140da08e9b7d222fa9c1f1ba1f2aa122826100ae60201b60201c565b50506102ad565b60006100c083836101ab60201b60201c565b6101a057600160008085815260200190815260200160002060000160008473ffffffffffffffffffffffffffffffffffffffff1673ffffffffffffffffffffffffffffffffffffffff16815260200190815260200160002060006101000a81548160ff02191690831515021790555061013d61021560201b60201c565b73ffffffffffffffffffffffffffffffffffffffff168273ffffffffffffffffffffffffffffffffffffffff16847f2f8788117e7eff1d82e926ec794901d17c78024a50270940304540a733656f0d60405160405180910390a4600190506101a5565b600090505b92915050565b600080600084815260200190815260200160002060000160008373ffffffffffffffffffffffffffffffffffffffff1673ffffffffffffffffffffffffffffffffffffffff16815260200190815260200160002060009054906101000a900460ff16905092915050565b600033905090565b600080fd5b600073ffffffffffffffffffffffffffffffffffffffff82169050919050565b600061024d82610222565b9050919050565b61025d81610242565b811461026857600080fd5b50565b60008151905061027a81610254565b92915050565b6000602082840312156102965761029561021d565b5b60006102a48482850161026b565b91505092915050565b611901806102bc6000396000f3fe608060405234801561001057600080fd5b50600436106101005760003560e01c8063877b9a6711610097578063a5c8d38d11610066578063a5c8d38d146102bf578063b10d6b41146102db578063d4f1c6151461030f578063d547741f1461032d57610100565b8063877b9a671461022557806391d1485414610255578063952be80d14610285578063a217fddf146102a157610100565b806336568abe116100d357806336568abe146101b157806375b238fc146101cd578063762a4b52146101eb57806382aefa241461020757610100565b806301ffc9a714610105578063248a9ca31461013557806324d7806c146101655780632f2ff15d14610195575b600080fd5b61011f600480360381019061011a9190610f43565b610349565b60405161012c9190610f8b565b60405180910390f35b61014f600480360381019061014a9190610fdc565b6103c3565b60405161015c9190611018565b60405180910390f35b61017f600480360381019061017a9190611091565b6103e2565b60405161018c9190610f8b565b60405180910390f35b6101af60048036038101906101aa91906110be565b610415565b005b6101cb60048036038101906101c691906110be565b610437565b005b6101d56104b2565b6040516101e29190611018565b60405180910390f35b61020560048036038101906102009190611163565b6104d6565b005b61020f610756565b60405161021c9190611018565b60405180910390f35b61023f600480360381019061023a9190611091565b61077a565b60405161024c9190610f8b565b60405180910390f35b61026f600480360381019061026a91906110be565b6107ad565b60405161027c9190610f8b565b60405180910390f35b61029f600480360381019061029a9190610fdc565b610817565b005b6102a9610910565b6040516102b69190611018565b60405180910390f35b6102d960048036038101906102d49190611091565b610917565b005b6102f560048036038101906102f09190610fdc565b610970565b6040516103069594939291906112b0565b60405180910390f35b610317610bad565b60405161032491906113cf565b60405180910390f35b610347600480360381019061034291906110be565b610c05565b005b60007f7965db0b000000000000000000000000000000000000000000000000000000007bffffffffffffffffffffffffffffffffffffffffffffffffffffffff1916827bffffffffffffffffffffffffffffffffffffffffffffffffffffffff191614806103bc57506103bb82610c27565b5b9050919050565b6000806000838152602001908152602001600020600101549050919050565b600061040e7fa49807205ce4d355092ef5a8a18f56e8913cf4a201fbe287825b095693c21775836107ad565b9050919050565b61041e826103c3565b61042781610c91565b6104318383610ca5565b50505050565b61043f610d96565b73ffffffffffffffffffffffffffffffffffffffff168173ffffffffffffffffffffffffffffffffffffffff16146104a3576040517f6697b23200000000000000000000000000000000000000000000000000000000815260040160405180910390fd5b6104ad8282610d9e565b505050565b7fa49807205ce4d355092ef5a8a18f56e8913cf4a201fbe287825b095693c2177581565b7f114e74f6ea3bd819998f78687bfcb11b140da08e9b7d222fa9c1f1ba1f2aa12261050081610c91565b6000600160008881526020019081526020016000206003015414610559576040517f08c379a00000000000000000000000000000000000000000000000000000000081526004016105509061143d565b60405180910390fd5b6040518060a001604052803373ffffffffffffffffffffffffffffffffffffffff16815260200186868080601f016020809104026020016040519081016040528093929190818152602001838380828437600081840152601f19601f82011690508083019250505050505050815260200184848080601f016020809104026020016040519081016040528093929190818152602001838380828437600081840152601f19601f820116905080830192505050505050508152602001428152602001600015158152506001600088815260200190815260200160002060008201518160000160006101000a81548173ffffffffffffffffffffffffffffffffffffffff021916908373ffffffffffffffffffffffffffffffffffffffff16021790555060208201518160010190816106909190611698565b5060408201518160020190816106a69190611698565b506060820151816003015560808201518160040160006101000a81548160ff02191690831515021790555090505060028690806001815401808255809150506001900390600052602060002001600090919091909150553373ffffffffffffffffffffffffffffffffffffffff16867f2e179362ece7e468a5be3dcce379d019b2df399b95808dd2a350bf8a0917ef3685856040516107469291906117a6565b60405180910390a3505050505050565b7f114e74f6ea3bd819998f78687bfcb11b140da08e9b7d222fa9c1f1ba1f2aa12281565b60006107a67f114e74f6ea3bd819998f78687bfcb11b140da08e9b7d222fa9c1f1ba1f2aa122836107ad565b9050919050565b600080600084815260200190815260200160002060000160008373ffffffffffffffffffffffffffffffffffffffff1673ffffffffffffffffffffffffffffffffffffffff16815260200190815260200160002060009054906101000a900460ff16905092915050565b7f114e74f6ea3bd819998f78687bfcb11b140da08e9b7d222fa9c1f1ba1f2aa12261084181610c91565b600060016000848152602001908152602001600020600301540361089a576040517f08c379a000000000000000000000000000000000000000000000000000000000815260040161089190611816565b60405180910390fd5b600180600084815260200190815260200160002060040160006101000a81548160ff0219169083151502179055503373ffffffffffffffffffffffffffffffffffffffff16827f0a7643bfbd115d98595cc7bd15944172c7ef0e4a7f48dcaf676dec4b74be936760405160405180910390a35050565b6000801b81565b7fa49807205ce4d355092ef5a8a18f56e8913cf4a201fbe287825b095693c2177561094181610c91565b61096b7f114e74f6ea3bd819998f78687bfcb11b140da08e9b7d222fa9c1f1ba1f2aa12283610ca5565b505050565b60006060806000806000600160008881526020019081526020016000206040518060a00160405290816000820160009054906101000a900473ffffffffffffffffffffffffffffffffffffffff1673ffffffffffffffffffffffffffffffffffffffff1673ffffffffffffffffffffffffffffffffffffffff1681526020016001820180546109fe906114bb565b80601f0160208091040260200160405190810160405280929190818152602001828054610a2a906114bb565b8015610a775780601f10610a4c57610100808354040283529160200191610a77565b820191906000526020600020905b815481529060010190602001808311610a5a57829003601f168201915b50505050508152602001600282018054610a90906114bb565b80601f0160208091040260200160405190810160405280929190818152602001828054610abc906114bb565b8015610b095780601f10610ade57610100808354040283529160200191610b09565b820191906000526020600020905b815481529060010190602001808311610aec57829003601f168201915b50505050508152602001600382015481526020016004820160009054906101000a900460ff16151515158152505090506000816060015103610b80576040517f08c379a0000000000000000000000000000000000000000000000000000000008152600401610b7790611882565b60405180910390fd5b80600001518160200151826040015183606001518460800151955095509550955095505091939590929450565b60606002805480602002602001604051908101604052809291908181526020018280548015610bfb57602002820191906000526020600020905b815481526020019060010190808311610be7575b5050505050905090565b610c0e826103c3565b610c1781610c91565b610c218383610d9e565b50505050565b60007f01ffc9a7000000000000000000000000000000000000000000000000000000007bffffffffffffffffffffffffffffffffffffffffffffffffffffffff1916827bffffffffffffffffffffffffffffffffffffffffffffffffffffffff1916149050919050565b610ca281610c9d610d96565b610e90565b50565b6000610cb183836107ad565b610d8b57600160008085815260200190815260200160002060000160008473ffffffffffffffffffffffffffffffffffffffff1673ffffffffffffffffffffffffffffffffffffffff16815260200190815260200160002060006101000a81548160ff021916908315150217905550610d28610d96565b73ffffffffffffffffffffffffffffffffffffffff168273ffffffffffffffffffffffffffffffffffffffff16847f2f8788117e7eff1d82e926ec794901d17c78024a50270940304540a733656f0d60405160405180910390a460019050610d90565b600090505b92915050565b600033905090565b6000610daa83836107ad565b15610e8557600080600085815260200190815260200160002060000160008473ffffffffffffffffffffffffffffffffffffffff1673ffffffffffffffffffffffffffffffffffffffff16815260200190815260200160002060006101000a81548160ff021916908315150217905550610e22610d96565b73ffffffffffffffffffffffffffffffffffffffff168273ffffffffffffffffffffffffffffffffffffffff16847ff6391f5c32d9c69d2a47ea670b442974b53935d1edc7fd64eb21e047a839171b60405160405180910390a460019050610e8a565b600090505b92915050565b610e9a82826107ad565b610edd5780826040517fe2517d3f000000000000000000000000000000000000000000000000000000008152600401610ed49291906118a2565b60405180910390fd5b5050565b600080fd5b600080fd5b60007fffffffff0000000000000000000000000000000000000000000000000000000082169050919050565b610f2081610eeb565b8114610f2b57600080fd5b50565b600081359050610f3d81610f17565b92915050565b600060208284031215610f5957610f58610ee1565b5b6000610f6784828501610f2e565b91505092915050565b60008115159050919050565b610f8581610f70565b82525050565b6000602082019050610fa06000830184610f7c565b92915050565b6000819050919050565b610fb981610fa6565b8114610fc457600080fd5b50565b600081359050610fd681610fb0565b92915050565b600060208284031215610ff257610ff1610ee1565b5b600061100084828501610fc7565b91505092915050565b61101281610fa6565b82525050565b600060208201905061102d6000830184611009565b92915050565b600073ffffffffffffffffffffffffffffffffffffffff82169050919050565b600061105e82611033565b9050919050565b61106e81611053565b811461107957600080fd5b50565b60008135905061108b81611065565b92915050565b6000602082840312156110a7576110a6610ee1565b5b60006110b58482850161107c565b91505092915050565b600080604083850312156110d5576110d4610ee1565b5b60006110e385828601610fc7565b92505060206110f48582860161107c565b9150509250929050565b600080fd5b600080fd5b600080fd5b60008083601f840112611123576111226110fe565b5b8235905067ffffffffffffffff8111156111405761113f611103565b5b60208301915083600182028301111561115c5761115b611108565b5b9250929050565b60008060008060006060868803121561117f5761117e610ee1565b5b600061118d88828901610fc7565b955050602086013567ffffffffffffffff8111156111ae576111ad610ee6565b5b6111ba8882890161110d565b9450945050604086013567ffffffffffffffff8111156111dd576111dc610ee6565b5b6111e98882890161110d565b92509250509295509295909350565b61120181611053565b82525050565b600081519050919050565b600082825260208201905092915050565b60005b83811015611241578082015181840152602081019050611226565b60008484015250505050565b6000601f19601f8301169050919050565b600061126982611207565b6112738185611212565b9350611283818560208601611223565b61128c8161124d565b840191505092915050565b6000819050919050565b6112aa81611297565b82525050565b600060a0820190506112c560008301886111f8565b81810360208301526112d7818761125e565b905081810360408301526112eb818661125e565b90506112fa60608301856112a1565b6113076080830184610f7c565b9695505050505050565b600081519050919050565b600082825260208201905092915050565b6000819050602082019050919050565b61134681610fa6565b82525050565b6000611358838361133d565b60208301905092915050565b6000602082019050919050565b600061137c82611311565b611386818561131c565b93506113918361132d565b8060005b838110156113c25781516113a9888261134c565b97506113b483611364565b925050600181019050611395565b5085935050505092915050565b600060208201905081810360008301526113e98184611371565b905092915050565b7f416c726561647920697373756564000000000000000000000000000000000000600082015250565b6000611427600e83611212565b9150611432826113f1565b602082019050919050565b600060208201905081810360008301526114568161141a565b9050919050565b7f4e487b7100000000000000000000000000000000000000000000000000000000600052604160045260246000fd5b7f4e487b7100000000000000000000000000000000000000000000000000000000600052602260045260246000fd5b600060028204905060018216806114d357607f821691505b6020821081036114e6576114e561148c565b5b50919050565b60008190508160005260206000209050919050565b60006020601f8301049050919050565b600082821b905092915050565b60006008830261154e7fffffffffffffffffffffffffffffffffffffffffffffffffffffffffffffffff82611511565b6115588683611511565b95508019841693508086168417925050509392505050565b6000819050919050565b600061159561159061158b84611297565b611570565b611297565b9050919050565b6000819050919050565b6115af8361157a565b6115c36115bb8261159c565b84845461151e565b825550505050565b600090565b6115d86115cb565b6115e38184846115a6565b505050565b5b81811015611607576115fc6000826115d0565b6001810190506115e9565b5050565b601f82111561164c5761161d816114ec565b61162684611501565b81016020851015611635578190505b61164961164185611501565b8301826115e8565b50505b505050565b600082821c905092915050565b600061166f60001984600802611651565b1980831691505092915050565b6000611688838361165e565b9150826002028217905092915050565b6116a182611207565b67ffffffffffffffff8111156116ba576116b961145d565b5b6116c482546114bb565b6116cf82828561160b565b600060209050601f83116001811461170257600084156116f0578287015190505b6116fa858261167c565b865550611762565b601f198416611710866114ec565b60005b8281101561173857848901518255600182019150602085019450602081019050611713565b868310156117555784890151611751601f89168261165e565b8355505b6001600288020188555050505b505050505050565b82818337600083830152505050565b60006117858385611212565b935061179283858461176a565b61179b8361124d565b840190509392505050565b600060208201905081810360008301526117c1818486611779565b90509392505050565b7f4e6f742069737375656400000000000000000000000000000000000000000000600082015250565b6000611800600a83611212565b915061180b826117ca565b602082019050919050565b6000602082019050818103600083015261182f816117f3565b9050919050565b7f446f63756d656e74206e6f7420666f756e640000000000000000000000000000600082015250565b600061186c601283611212565b915061187782611836565b602082019050919050565b6000602082019050818103600083015261189b8161185f565b9050919050565b60006040820190506118b760008301856111f8565b6118c46020830184611009565b939250505056fea2646970667358221220f87c2a3319e03d62bf330b5a77051631a34678d5da94277411ce33a25ccb021e64736f6c634300081c0033",
  "linkReferences": {},
  "deployedLinkReferences": {}
}