{
  "_format": "hh-sol-artifact-1",
  "contractName": "DocRegistry",
  "sourceName": "contracts/DocRegistry.sol",
  "abi": [
    {
      "inputs": [
        {
          "internalType": "address",
          "name": "admin",
          "type": "address"
        }
      ],
      "stateMutability": "nonpayable",
      "type": "constructor"
    },
    {
      "inputs": [],
      "name": "AccessControlBadConfirmation",
      "type": "error"
    },
    {
      "inputs": [
        {
          "internalType": "address",
          "name": "account",
          "type": "address"
        },
        {
          "internalType": "bytes32",
          "name": "neededRole",
          "type": "bytes32"
        }
      ],
      "name": "AccessControlUnauthorizedAccount",
      "type": "error"
    },
    {
      "anonymous": false,
      "inputs": [
        {
          "indexed": true,
          "internalType": "bytes32",
          "name": "docHash",
          "type": "bytes32"
        },
        {
          "indexed": true,
          "internalType": "address",
          "name": "issuer",
          "type": "address"
        },
        {
          "indexed": false,
          "internalType": "string",
          "name": "ipfsUri",
          "type": "string"
        }
      ],
      "name": "DocumentIssued",
      "type": "event"
    },
    {
      "anonymous": false,
      "inputs": [
        {
          "indexed": true,
          "internalType": "bytes32",
          "name": "docHash",
          "type": "bytes32"
        },
        {
          "indexed": true,
          "internalType": "address",
          "name": "issuer",
          "type": "address"
        }
      ],
      "name": "DocumentRevoked",
      "type": "event"
    },
    {
      "anonymous": false,
      "inputs": [
        {
          "indexed": true,
          "internalType": "bytes32",
          "name": "role",
          "type": "bytes32"
        },
        {
          "indexed": true,
          "internalType": "bytes32",
          "name": "previousAdminRole",
          "type": "bytes32"
        },
        {
          "indexed": true,
          "internalType": "bytes32",
          "name": "newAdminRole",
          "type": "bytes32"
        }
      ],
      "name": "RoleAdminChanged",
      "type": "event"
    },
    {
      "anonymous": false,
      "inputs": [
        {
          "indexed": true,
          "internalType": "bytes32",
          "name": "role",
          "type": "bytes32"
        },
        {
          "indexed": true,
          "internalType": "address",
          "name": "account",
          "type": "address"
        },
        {
          "indexed": true,
          "internalType": "address",
          "name": "sender",
          "type": "address"
        }
      ],
      "name": "RoleGranted",
      "type": "event"
    },
    {
      "anonymous": false,
      "inputs": [
        {
          "indexed": true,
          "internalType": "bytes32",
          "name": "role",
          "type": "bytes32"
        },
        {
          "indexed": true,
          "internalType": "address",
          "name": "account",
          "type": "address"
        },
        {
          "indexed": true,
          "internalType": "address",
          "name": "sender",
          "type": "address"
        }
      ],
      "name": "RoleRevoked",
      "type": "event"
    },
    {
      "inputs": [],
      "name": "DEFAULT_ADMIN_ROLE",
      "outputs": [
        {
          "internalType": "bytes32",
          "name": "",
          "type": "bytes32"
        }
      ],
      "stateMutability": "view",
      "type": "function"
    },
    {
      "inputs": [],
      "name": "ISSUER_ROLE",
      "outputs": [
        {
          "internalType": "bytes32",
          "name": "",
          "type": "bytes32"
        }
      ],
      "stateMutability": "view",
      "type": "function"
    },
    {
      "inputs": [
        {
          "internalType": "bytes32",
          "name": "docHash",
          "type": "bytes32"
        }
      ],
      "name": "getDocument",
      "outputs": [
        {
          "internalType": "address",
          "name": "issuer",
          "type": "address"
        },
        {
          "internalType": "string",
          "name": "ipfsUri",
          "type": "string"
        },
        {
          "internalType": "uint256",
          "name": "issuedAt",
          "type": "uint256"
        },
        {
          "internalType": "bool",
          "name": "revoked",
          "type": "bool"
        }
      ],
      "stateMutability": "view",
      "type": "function"
    },
    {
      "inputs": [
        {
          "internalType": "bytes32",
          "name": "role",
          "type": "bytes32"
        }
      ],
      "name": "getRoleAdmin",
      "outputs": [
        {
          "internalType": "bytes32",
          "name": "",
          "type": "bytes32"
        }
      ],
      "stateMutability": "view",
      "type": "function"
    },
    {
      "inputs": [
        {
          "internalType": "bytes32",
          "name": "role",
          "type": "bytes32"
        },
        {
          "internalType": "address",
          "name": "account",
          "type": "address"
        }
      ],
      "name": "grantRole",
      "outputs": [],
      "stateMutability": "nonpayable",
      "type": "function"
    },
    {
      "inputs": [
        {
          "internalType": "bytes32",
          "name": "role",
          "type": "bytes32"
        },
        {
          "internalType": "address",
          "name": "account",
          "type": "address"
        }
      ],
      "name": "hasRole",
      "outputs": [
        {
          "internalType": "bool",
          "name": "",
          "type": "bool"
        }
      ],
      "stateMutability": "view",
      "type": "function"
    },
    {
      "inputs": [
        {
          "internalType": "bytes32",
          "name": "docHash",
          "type": "bytes32"
        },
        {
          "internalType": "string",
          "name": "ipfsUri",
          "type": "string"
        }
      ],
      "name": "issueDocument",
      "outputs": [],
      "stateMutability": "nonpayable",
      "type": "function"
    },
    {
      "inputs": [
        {
          "internalType": "bytes32",
          "name": "role",
          "type": "bytes32"
        },
        {
          "internalType": "address",
          "name": "callerConfirmation",
          "type": "address"
        }
      ],
      "name": "renounceRole",
      "outputs": [],
      "stateMutability": "nonpayable",
      "type": "function"
    },
    {
      "inputs": [
        {
          "internalType": "bytes32",
          "name": "docHash",
          "type": "bytes32"
        }
      ],
      "name": "revokeDocument",
      "outputs": [],
      "stateMutability": "nonpayable",
      "type": "function"
    },
    {
      "inputs": [
        {
          "internalType": "bytes32",
          "name": "role",
          "type": "bytes32"
        },
        {
          "internalType": "address",
          "name": "account",
          "type": "address"
        }
      ],
      "name": "revokeRole",
      "outputs": [],
      "stateMutability": "nonpayable",
      "type": "function"
    },
    {
      "inputs": [
        {
          "internalType": "bytes4",
          "name": "interfaceId",
          "type": "bytes4"
        }
      ],
      "name": "supportsInterface",
      "outputs": [
        {
          "internalType": "bool",
          "name": "",
          "type": "bool"
        }
      ],
      "stateMutability": "view",
      "type": "function"
    }
  ],
  "bytecode": "0x608060405234801561001057600080fd5b5060405161175f38038061175f8339818101604052810190610032919061021e565b6100456000801b8261004c60201b60201c565b505061024b565b600061005e838361014960201b60201c565b61013e57600160008085815260200190815260200160002060000160008473ffffffffffffffffffffffffffffffffffffffff1673ffffffffffffffffffffffffffffffffffffffff16815260200190815260200160002060006101000a81548160ff0219169083151502179055506100db6101b360201b60201c565b73ffffffffffffffffffffffffffffffffffffffff168273ffffffffffffffffffffffffffffffffffffffff16847f2f8788117e7eff1d82e926ec794901d17c78024a50270940304540a733656f0d60405160405180910390a460019050610143565b600090505b92915050565b600080600084815260200190815260200160002060000160008373ffffffffffffffffffffffffffffffffffffffff1673ffffffffffffffffffffffffffffffffffffffff16815260200190815260200160002060009054906101000a900460ff16905092915050565b600033905090565b600080fd5b600073ffffffffffffffffffffffffffffffffffffffff82169050919050565b60006101eb826101c0565b9050919050565b6101fb816101e0565b811461020657600080fd5b50565b600081519050610218816101f2565b92915050565b600060208284031215610234576102336101bb565b5b600061024284828501610209565b91505092915050565b6115058061025a6000396000f3fe608060405234801561001057600080fd5b50600436106100a95760003560e01c806382aefa241161007157806382aefa241461016257806391d1485414610180578063952be80d146101b0578063a217fddf146101cc578063b10d6b41146101ea578063d547741f1461021d576100a9565b806301ffc9a7146100ae578063248a9ca3146100de5780632f2ff15d1461010e57806336568abe1461012a57806372b1e76314610146575b600080fd5b6100c860048036038101906100c39190610c32565b610239565b6040516100d59190610c7a565b60405180910390f35b6100f860048036038101906100f39190610ccb565b6102b3565b6040516101059190610d07565b60405180910390f35b61012860048036038101906101239190610d80565b6102d2565b005b610144600480360381019061013f9190610d80565b6102f4565b005b610160600480360381019061015b9190610e25565b61036f565b005b61016a610564565b6040516101779190610d07565b60405180910390f35b61019a60048036038101906101959190610d80565b610588565b6040516101a79190610c7a565b60405180910390f35b6101ca60048036038101906101c59190610ccb565b6105f2565b005b6101d46107f3565b6040516101e19190610d07565b60405180910390f35b61020460048036038101906101ff9190610ccb565b6107fa565b6040516102149493929190610f3d565b60405180910390f35b61023760048036038101906102329190610d80565b6108f4565b005b60007f7965db0b000000000000000000000000000000000000000000000000000000007bffffffffffffffffffffffffffffffffffffffffffffffffffffffff1916827bffffffffffffffffffffffffffffffffffffffffffffffffffffffff191614806102ac57506102ab82610916565b5b9050919050565b6000806000838152602001908152602001600020600101549050919050565b6102db826102b3565b6102e481610980565b6102ee8383610994565b50505050565b6102fc610a85565b73ffffffffffffffffffffffffffffffffffffffff168173ffffffffffffffffffffffffffffffffffffffff1614610360576040517f6697b23200000000000000000000000000000000000000000000000000000000815260040160405180910390fd5b61036a8282610a8d565b505050565b7f114e74f6ea3bd819998f78687bfcb11b140da08e9b7d222fa9c1f1ba1f2aa12261039981610980565b60006001600086815260200190815260200160002060020154146103f2576040517f08c379a00000000000000000000000000000000000000000000000000000000081526004016103e990610fd5565b60405180910390fd5b60405180608001604052803373ffffffffffffffffffffffffffffffffffffffff16815260200184848080601f016020809104026020016040519081016040528093929190818152602001838380828437600081840152601f19601f820116905080830192505050505050508152602001428152602001600015158152506001600086815260200190815260200160002060008201518160000160006101000a81548173ffffffffffffffffffffffffffffffffffffffff021916908373ffffffffffffffffffffffffffffffffffffffff16021790555060208201518160010190816104df9190611230565b506040820151816002015560608201518160030160006101000a81548160ff0219169083151502179055509050503373ffffffffffffffffffffffffffffffffffffffff16847f2e179362ece7e468a5be3dcce379d019b2df399b95808dd2a350bf8a0917ef36858560405161055692919061133e565b60405180910390a350505050565b7f114e74f6ea3bd819998f78687bfcb11b140da08e9b7d222fa9c1f1ba1f2aa12281565b600080600084815260200190815260200160002060000160008373ffffffffffffffffffffffffffffffffffffffff1673ffffffffffffffffffffffffffffffffffffffff16815260200190815260200160002060009054906101000a900460ff16905092915050565b7f114e74f6ea3bd819998f78687bfcb11b140da08e9b7d222fa9c1f1ba1f2aa12261061c81610980565b6000600160008481526020019081526020016000206002015403610675576040517f08c379a000000000000000000000000000000000000000000000000000000000815260040161066c906113ae565b60405180910390fd5b6001600083815260200190815260200160002060030160009054906101000a900460ff16156106d9576040517f08c379a00000000000000000000000000000000000000000000000000000000081526004016106d09061141a565b60405180910390fd5b3373ffffffffffffffffffffffffffffffffffffffff166001600084815260200190815260200160002060000160009054906101000a900473ffffffffffffffffffffffffffffffffffffffff1673ffffffffffffffffffffffffffffffffffffffff161461077d576040517f08c379a000000000000000000000000000000000000000000000000000000000815260040161077490611486565b60405180910390fd5b600180600084815260200190815260200160002060030160006101000a81548160ff0219169083151502179055503373ffffffffffffffffffffffffffffffffffffffff16827f0a7643bfbd115d98595cc7bd15944172c7ef0e4a7f48dcaf676dec4b74be936760405160405180910390a35050565b6000801b81565b6000606060008060006001600087815260200190815260200160002090508060000160009054906101000a900473ffffffffffffffffffffffffffffffffffffffff168160010182600201548360030160009054906101000a900460ff1682805461086490611053565b80601f016020809104026020016040519081016040528092919081815260200182805461089090611053565b80156108dd5780601f106108b2576101008083540402835291602001916108dd565b820191906000526020600020905b8154815290600101906020018083116108c057829003601f168201915b505050505092509450945094509450509193509193565b6108fd826102b3565b61090681610980565b6109108383610a8d565b50505050565b60007f01ffc9a7000000000000000000000000000000000000000000000000000000007bffffffffffffffffffffffffffffffffffffffffffffffffffffffff1916827bffffffffffffffffffffffffffffffffffffffffffffffffffffffff1916149050919050565b6109918161098c610a85565b610b7f565b50565b60006109a08383610588565b610a7a57600160008085815260200190815260200160002060000160008473ffffffffffffffffffffffffffffffffffffffff1673ffffffffffffffffffffffffffffffffffffffff16815260200190815260200160002060006101000a81548160ff021916908315150217905550610a17610a85565b73ffffffffffffffffffffffffffffffffffffffff168273ffffffffffffffffffffffffffffffffffffffff16847f2f8788117e7eff1d82e926ec794901d17c78024a50270940304540a733656f0d60405160405180910390a460019050610a7f565b600090505b92915050565b600033905090565b6000610a998383610588565b15610b7457600080600085815260200190815260200160002060000160008473ffffffffffffffffffffffffffffffffffffffff1673ffffffffffffffffffffffffffffffffffffffff16815260200190815260200160002060006101000a81548160ff021916908315150217905550610b11610a85565b73ffffffffffffffffffffffffffffffffffffffff168273ffffffffffffffffffffffffffffffffffffffff16847ff6391f5c32d9c69d2a47ea670b442974b53935d1edc7fd64eb21e047a839171b60405160405180910390a460019050610b79565b600090505b92915050565b610b898282610588565b610bcc5780826040517fe2517d3f000000000000000000000000000000000000000000000000000000008152600401610bc39291906114a6565b60405180910390fd5b5050565b600080fd5b600080fd5b60007fffffffff0000000000000000000000000000000000000000000000000000000082169050919050565b610c0f81610bda565b8114610c1a57600080fd5b50565b600081359050610c2c81610c06565b92915050565b600060208284031215610c4857610c47610bd0565b5b6000610c5684828501610c1d565b91505092915050565b60008115159050919050565b610c7481610c5f565b82525050565b6000602082019050610c8f6000830184610c6b565b92915050565b6000819050919050565b610ca881610c95565b8114610cb357600080fd5b50565b600081359050610cc581610c9f565b92915050565b600060208284031215610ce157610ce0610bd0565b5b6000610cef84828501610cb6565b91505092915050565b610d0181610c95565b82525050565b6000602082019050610d1c6000830184610cf8565b92915050565b600073ffffffffffffffffffffffffffffffffffffffff82169050919050565b6000610d4d82610d22565b9050919050565b610d5d81610d42565b8114610d6857600080fd5b50565b600081359050610d7a81610d54565b92915050565b60008060408385031215610d9757610d96610bd0565b5b6000610da585828601610cb6565b9250506020610db685828601610d6b565b9150509250929050565b600080fd5b600080fd5b600080fd5b60008083601f840112610de557610de4610dc0565b5b8235905067ffffffffffffffff811115610e0257610e01610dc5565b5b602083019150836001820283011115610e1e57610e1d610dca565b5b9250929050565b600080600060408486031215610e3e57610e3d610bd0565b5b6000610e4c86828701610cb6565b935050602084013567ffffffffffffffff811115610e6d57610e6c610bd5565b5b610e7986828701610dcf565b92509250509250925092565b610e8e81610d42565b82525050565b600081519050919050565b600082825260208201905092915050565b60005b83811015610ece578082015181840152602081019050610eb3565b60008484015250505050565b6000601f19601f8301169050919050565b6000610ef682610e94565b610f008185610e9f565b9350610f10818560208601610eb0565b610f1981610eda565b840191505092915050565b6000819050919050565b610f3781610f24565b82525050565b6000608082019050610f526000830187610e85565b8181036020830152610f648186610eeb565b9050610f736040830185610f2e565b610f806060830184610c6b565b95945050505050565b7f416c726561647920697373756564000000000000000000000000000000000000600082015250565b6000610fbf600e83610e9f565b9150610fca82610f89565b602082019050919050565b60006020820190508181036000830152610fee81610fb2565b9050919050565b7f4e487b7100000000000000000000000000000000000000000000000000000000600052604160045260246000fd5b7f4e487b7100000000000000000000000000000000000000000000000000000000600052602260045260246000fd5b6000600282049050600182168061106b57607f821691505b60208210810361107e5761107d611024565b5b50919050565b60008190508160005260206000209050919050565b60006020601f8301049050919050565b600082821b905092915050565b6000600883026110e67fffffffffffffffffffffffffffffffffffffffffffffffffffffffffffffffff826110a9565b6110f086836110a9565b95508019841693508086168417925050509392505050565b6000819050919050565b600061112d61112861112384610f24565b611108565b610f24565b9050919050565b6000819050919050565b61114783611112565b61115b61115382611134565b8484546110b6565b825550505050565b600090565b611170611163565b61117b81848461113e565b505050565b5b8181101561119f57611194600082611168565b600181019050611181565b5050565b601f8211156111e4576111b581611084565b6111be84611099565b810160208510156111cd578190505b6111e16111d985611099565b830182611180565b50505b505050565b600082821c905092915050565b6000611207600019846008026111e9565b1980831691505092915050565b600061122083836111f6565b9150826002028217905092915050565b61123982610e94565b67ffffffffffffffff81111561125257611251610ff5565b5b61125c8254611053565b6112678282856111a3565b600060209050601f83116001811461129a5760008415611288578287015190505b6112928582611214565b8655506112fa565b601f1984166112a886611084565b60005b828110156112d0578489015182556001820191506020850194506020810190506112ab565b868310156112ed57848901516112e9601f8916826111f6565b8355505b6001600288020188555050505b505050505050565b82818337600083830152505050565b600061131d8385610e9f565b935061132a838584611302565b61133383610eda565b840190509392505050565b60006020820190508181036000830152611359818486611311565b90509392505050565b7f4e6f742069737375656400000000000000000000000000000000000000000000600082015250565b6000611398600a83610e9f565b91506113a382611362565b602082019050919050565b600060208201905081810360008301526113c78161138b565b9050919050565b7f416c7265616479207265766f6b65640000000000000000000000000000000000600082015250565b6000611404600f83610e9f565b915061140f826113ce565b602082019050919050565b60006020820190508181036000830152611433816113f7565b9050919050565b7f4f6e6c79206973737565722063616e207265766f6b6500000000000000000000600082015250565b6000611470601683610e9f565b915061147b8261143a565b602082019050919050565b6000602082019050818103600083015261149f81611463565b9050919050565b60006040820190506114bb6000830185610e85565b6114c86020830184610cf8565b939250505056fea26469706673582212201e9a5eab68902482517a991e1ab6a3d2bb7cceb2441e7058d71e4a4ee3f9382064736f6c634300081c0033",
  "linkReferences": {},
  "deployedLinkReferences": {}
}